:100000000C942A000C9434000C9434000C943400AA
:100010000C9434000C9434000C9434000C94340090
:100020000C9434000C9434000C9434000C94340080
:100030000C9434000C9434000C9434000C94340070
:100040000C9434000C9434000C9434000C94340060
:100050000C94340011241FBECFE5D8E0DEBFCDBF25
:100060000E9445000C9494000C94000020E030E0C5
:100070002817390749F0ECECFAE03197F1F700C0A6
:1000800000002F5F3F4FF4CF08958FE08ABB10E050
:1000900000E0CAE0D0E089E0E82E9CE0C92E26E02E
:1000A000B22E33E0D32EFF24F394CE9902C02296D1
:1000B00003C0CF9904C0229788EC90E024C00023AD
:1000C00021F1112391F0DBBACE010E9436008BB3EF
:1000D000880F8BBBCE010E9436008BB3880F8BBB81
:1000E000CE010E943600EBBA0DC0EBBACE010E94E1
:1000F0003600CBBACE010E943600BBBACE010E94B8
:100100003600DBBACE010E943600CC9905C00F251F
:1001100084EF91E00E943600CD99C7CF1F2584EF70
:0C01200091E00E943600C1CFF894FFCFA0
:00000001FF
