:100000000C942A000C9434000C9434000C943400AA
:100010000C9434000C9434000C9434000C94340090
:100020000C9434000C9434000C9434000C94340080
:100030000C9434000C9434000C9434000C94340070
:100040000C9434000C9434000C9434000C94340060
:100050000C94340011241FBECFE5D8E0DEBFCDBF25
:100060000E9436000C9447000C94000081E08ABB8B
:10007000C99B02C01BBA01C08BBB2FEF3FE593E0C9
:10008000215030409040E1F700C00000F1CFF894DB
:02009000FFCFA0
:00000001FF
