:100000000C942A000C943E000C943C000C943C0090
:100010000C943C000C943C000C943C000C943C0070
:100020000C943C000C944D000C943C000C943C004F
:100030000C943C000C943C000C943C000C943C0050
:100040000C943C000C943C000C943C000C943C0040
:100050000C943C0011241FBECFE5D8E0DEBFCDBF1D
:1000600020E0A0E6B0E001C01D92A136B207E1F7A2
:100070000E9467000C947E000C9400001F920F9267
:100080000FB60F9211248F938EB584608EBD8F9121
:100090000F900FBE0F901F9018951F920F920FB6E2
:1000A0000F9211248F939F931EBC83E39FEE9DBDFF
:1000B0008CBD829905C0809160008F5F8093600045
:1000C0009F918F910F900FBE0F901F9018951092D7
:1000D00060008FEF8ABB8BB780648BBF85B782606F
:1000E00085BF83E39FEE9DBD8CBD89B7846089BFCA
:1000F00078948091600080958BBBFBCFF894FFCF04
:00000001FF
